:100000000C945D000C9485000C9485000C94850084
:100010000C9485000C9485000C9485000C9485004C
:100020000C9485000C9485000C9485000C9485003C
:100030000C9485000C9485000C9485000C9485002C
:100040000C9432020C9485000C94A2020C947C0255
:100050000C9485000C9485000C9485000C9485000C
:100060000C9485000C9485000000000024002700FB
:100070002A0000000000250028002B0004040404CE
:100080000404040402020202020203030303030342
:10009000010204081020408001020408102001021F
:1000A00004081020000000080002010000030407FB
:1000B00000000000000000002B0411241FBECFEF41
:1000C000D8E0DEBFCDBF21E0A2E3B1E001C01D92C8
:1000D000AC3DB207E1F711E0A0E0B1E0E8E3FDE0FC
:1000E00002C005900D92A233B107D9F710E0CDE51B
:1000F000D0E004C02197FE010E948F04CC35D107C7
:10010000C9F70E94D4020C949A060C94000090E067
:10011000FC01EC55FF4F2491FC01E057FF4F349157
:10012000FC01E458FF4FE491EE2309F43CC0222384
:1001300039F1233091F038F42130A9F0223001F563
:1001400084B58F7D12C0273091F02830A1F0243083
:10015000B9F4809180008F7D03C0809180008F77FB
:10016000809380000DC084B58F7784BD09C08091D5
:10017000B0008F7703C08091B0008F7D8093B00076
:10018000F0E0EE0FFF1FEE58FF4FA591B4919FB71F
:10019000F894611104C08C913095382302C0EC9121
:1001A0003E2B3C939FBF08953FB7F8948091D401B4
:1001B0009091D501A091D601B091D70126B5A89B09
:1001C00005C02F3F19F00196A11DB11D3FBFBA2FE9
:1001D000A92F982F8827820F911DA11DB11DBC0149
:1001E000CD0142E0660F771F881F991F4A95D1F70E
:1001F0000895CF92DF92EF92FF920F931F93CF93C8
:10020000DF936C017A018B01C0E0D0E0CE15DF05F1
:1002100081F0D8016D918D01D601ED91FC91019095
:10022000F081E02DC6010995892B11F02196EECFC2
:100230007E01C701DF91CF911F910F91FF90EF9049
:10024000DF90CF900895089580E090E00895FC013C
:10025000538D448D252F30E0842F90E0821B930B2B
:10026000541710F0CF96089501970895FC01918DD1
:10027000828D981761F0828DDF01A80FB11D5D9608
:100280008C91928D9F5F9F73928F90E008958FEF76
:100290009FEF0895FC01918D828D981731F0828D2A
:1002A000E80FF11D858D90E008958FEF9FEF089581
:1002B000FC01918D228D892F90E0805C9F4F821BE5
:1002C00091098F739927089582E391E00E94580164
:1002D00021E0892B09F420E0822F0895FC01848D10
:1002E000DF01A80FB11DA35ABF4F2C91848D90E060
:1002F00001968F739927848FA689B7892C93A0893B
:10030000B1898C91837080648C93938D848D9813C4
:1003100006C00288F389E02D80818F7D8083089557
:10032000EF92FF920F931F93CF93DF93EC0181E045
:10033000888F9B8D8C8D981305C0E889F989808101
:1003400085FD26C0F62E0B8D10E00F5F1F4F0F733B
:100350001127E02E8C8DE8120CC00FB607FCFACFE7
:10036000E889F989808185FFF5CFCE010E946E0171
:10037000F1CF8B8DFE01E80FF11DE35AFF4FF082A4
:100380009FB7F8940B8FEA89FB89808180620AC04D
:100390009FB7F894EE89FF896083E889F9898081A5
:1003A0008370806480839FBF81E090E0DF91CF9174
:1003B0001F910F91FF90EF900895CF93DF93EC0181
:1003C000888D8823C9F0EA89FB89808185FD05C075
:1003D000A889B9898C9186FD0FC00FB607FCF5CFAF
:1003E000808185FFF2CFA889B9898C9185FFEDCFF7
:1003F000CE010E946E01E7CFDF91CF91089580E09A
:1004000090E0892B29F00E94640181110C94000076
:1004100008950E947C060F931F93CF93DF93EC0106
:1004200088819981009729F02A813B812617370717
:1004300088F48B016F5F7F4F0E94B605009761F0D3
:10044000998388831B830A832C813D81232B11F49C
:10045000FC01108281E001C080E0DF91CF911F910B
:100460000F9108951F920F920FB60F9211242F93A0
:100470003F938F939F93AF93BF938091D0019091BF
:10048000D101A091D201B091D3013091CF0123E0ED
:10049000230F2D3720F40196A11DB11D05C026E8BC
:1004A000230F0296A11DB11D2093CF018093D0018F
:1004B0009093D101A093D201B093D3018091D40144
:1004C0009091D501A091D601B091D7010196A11DBF
:1004D000B11D8093D4019093D501A093D601B09320
:1004E000D701BF91AF919F918F913F912F910F9025
:1004F0000FBE0F901F9018951F920F920FB60F927C
:1005000011242F933F934F935F936F937F938F9318
:100510009F93AF93BF93EF93FF9382E391E00E9489
:100520006E01FF91EF91BF91AF919F918F917F915C
:100530006F915F914F913F912F910F900FBE0F9050
:100540001F9018951F920F920FB60F9211242F93A0
:100550008F939F93EF93FF93E0914201F0914301BA
:100560008081E0914801F091490182FD12C09081A3
:1005700080914B018F5F8F7320914C01821751F056
:10058000E0914B01F0E0EE5CFE4F958F80934B01C4
:1005900001C08081FF91EF919F918F912F910F90DA
:1005A0000FBE0F901F901895CF93DF93CDB7DEB796
:1005B00028970FB6F894DEBF0FBECDBF789484B5F0
:1005C000826084BD84B5816084BD85B5826085BD4F
:1005D00085B5816085BD80916E00816080936E00DD
:1005E00010928100809181008260809381008091CF
:1005F0008100816080938100809180008160809380
:1006000080008091B10084608093B1008091B0003F
:1006100081608093B00080917A00846080937A003A
:1006200080917A00826080937A0080917A00816064
:1006300080937A0080917A00806880937A0010928B
:10064000C100E0E9F0E02491ECE7F0E08491882338
:1006500099F090E0880F991FFC01E859FF4FA59190
:10066000B491FC01EE58FF4F859194918FB7F894A7
:10067000EC91E22BEC938FBFE0914201F0914301AA
:1006800082E08083E0913E01F0913F011082E09191
:100690004001F09141018FEC808310924A01E0917A
:1006A0004601F091470186E08083E0914401F0919A
:1006B0004501808180618083E0914401F091450192
:1006C000808188608083E0914401F09145018081C0
:1006D00080688083E0914401F091450180818F7DA5
:1006E000808382E391E00E945801181619060CF0ED
:1006F000AFC01A8219821C821B821E821D8260E09A
:1007000070E0CE0101960E940B0229813A8181118D
:100710000DC02115310519F0C9010E942D051A825D
:1007200019821E821D821C821B8207C01E821D82AE
:1007300063E271E0C9010E94930682E391E00E94A6
:100740005801181619060CF047C082E391E00E9488
:1007500036018A30D1F08F8318860D811E810F5F9C
:100760001F4FB801CE0101960E940B02882369F049
:1007700029813A818D819E81BE01695F7F4F820F01
:10078000931F0E9493061E830D830E94D4006B0169
:100790007C018AE0882E912CA12CB12C0E94D400DF
:1007A000DC01CB018C199D09AE09BF09883E93403D
:1007B000A105B10598F321E0821A9108A108B108BA
:1007C00088EEC80E83E0D81EE11CF11C8114910450
:1007D000A104B10419F7B1CF48E050E068E171E03D
:1007E00082E391E00E94F9004D815E8169817A8106
:1007F00082E391E00E94F90042E050E061E271E0A2
:1008000082E391E00E94F9008D819E81892B61F045
:1008100064E271E089819A810E948A06892B21F421
:1008200060E080E00E9487008D819E81892B61F0CD
:1008300069E271E089819A810E948A06892B21F4FC
:1008400061E080E00E94870089819A810E942D05E5
:100850000E94FF0146CFE2E3F1E01382128288EEAC
:1008600093E0A0E0B0E084839583A683B7838AE019
:1008700091E09183808385EC90E09587848784EC78
:1008800090E09787868780EC90E0918B808B81EC5D
:1008900090E0938B828B82EC90E0958B848B86EC3E
:1008A00090E0978B868B118E128E138E148E089586
:1008B0002F923F924F925F926F927F928F929F9270
:1008C000AF92BF92CF92DF92EF92FF920F931F935E
:1008D000CF93DF93CDB7DEB7CA1BDB0B0FB6F8940F
:1008E000DEBF0FBECDBF09942A88398848885F844F
:1008F0006E847D848C849B84AA84B984C884DF80C0
:10090000EE80FD800C811B81AA81B981CE0FD11DA3
:100910000FB6F894DEBF0FBECDBFED010895EE0F08
:10092000FF1F0590F491E02D09940F931F93CF932F
:10093000DF938230910510F482E090E0E091DA01DB
:10094000F091DB0120E030E0A0E0B0E0309719F159
:10095000408151810281138148175907C8F08417DB
:10096000950769F4109731F012960C93129713962D
:100970001C9327C00093DA011093DB0122C02115DC
:10098000310519F04217530718F49A01BD01EF0120
:10099000DF01F801DBCF21153105F9F0281B390BF8
:1009A0002430310580F48A819B816115710521F025
:1009B000FB019383828304C09093DB018093DA016F
:1009C000FE01329644C0FE01E20FF31F8193919322
:1009D00022503109398328833AC02091D8013091BF
:1009E000D901232B41F4209102013091030130936E
:1009F000D9012093D80120910001309101012115E6
:100A0000310541F42DB73EB74091040150910501E5
:100A1000241B350BE091D801F091D901E217F307BF
:100A2000A0F42E1B3F0B2817390778F0AC014E5F5E
:100A30005F4F2417350748F04E0F5F1F5093D901C1
:100A40004093D8018193919302C0E0E0F0E0CF01A0
:100A5000DF91CF911F910F910895CF93DF9300976E
:100A600009F481C0FC01329713821282A091DA014D
:100A7000B091DB01109781F420813181820F931FA7
:100A80002091D8013091D9012817390751F5F093F9
:100A9000D901E093D80167C0ED0120E030E0CE1726
:100AA000DF0740F44A815B819E0141155105F1F059
:100AB000EA01F5CFD383C28340815181840F951F12
:100AC000C817D90759F488819981840F951F029618
:100AD000918380838A819B81938382832115310551
:100AE00029F4F093DB01E093DA013DC0E901FB83D7
:100AF000EA8349915991C40FD51FEC17FD0761F4A2
:100B000080819181840F951F0296E90199838883E2
:100B1000828193819B838A83E0E0F0E012968D913D
:100B20009C911397009719F0FD01DC01F7CF8D918F
:100B30009C9111979D012E5F3F4F820F931F209133
:100B4000D8013091D9012817390769F4309729F471
:100B50001092DB011092DA0102C013821282B0936C
:100B6000D901A093D801DF91CF910895A0E0B0E022
:100B7000ECEBF5E00C945C04EC01009721F4CB0164
:100B80000E949504B4C0FC01E60FF71F9C0122509F
:100B90003109E217F30708F4A8C0D9010D911C919F
:100BA000119706171707B0F00530110508F49BC020
:100BB000C80104978617970708F495C002501109D9
:100BC000061B170B019311936D937C93CF010E9429
:100BD0002D0589C05B01A01AB10A4C01800E911E3F
:100BE000A091DA01B091DB01612C712CE12CF12C88
:100BF000109709F446C08D919C911197A815B905DD
:100C0000B1F56C0142E0C40ED11CCA14DB0478F1CA
:100C10004C018A189B08640142E0C40ED11C129654
:100C2000BC9012971396AC91B5E0CB16D10440F06E
:100C3000B282A38391828082D9016D937C9309C093
:100C40000E5F1F4F800F911FF90191838083EB2D61
:100C5000FA2FE114F10431F0D7011396FC93EE93CF
:100C6000129741C0F093DB01E093DA013CC06816B3
:100C7000790608F43C017D0112960D90BC91A02DDF
:100C8000B7CF8091D8019091D90188169906E1F4E7
:100C900066167706C8F480910001909101010097D3
:100CA00041F48DB79EB74091040150910501841B1A
:100CB000950BE817F907C8F4F093D901E093D80130
:100CC000F901718360830FC0CB010E9495047C0100
:100CD000009759F0A801BE010E948106CE010E9432
:100CE0002D05C70104C0CE0102C080E090E0CDB761
:100CF000DEB7EEE00C94780481E090E0F8940C9478
:100D00009A06FB01DC0102C001900D924150504057
:100D1000D8F70895FB01DC018D9101908019011035
:100D2000D9F3990B0895FB01DC0101900D9200208D
:080D3000E1F70895F894FFCFEC
:100D38000000DC018000000000009001F90027019C
:100D4800DD01580136014A015265636562693A203E
:100D5800000D0A0030313031006465736C696761D9
:020D6800000089
:00000001FF
