:100000000C945D000C9485000C9485000C94850084
:100010000C9485000C9485000C9485000C9485004C
:100020000C9485000C9485000C9485000C942B0393
:100030000C9485000C9485000C9485000C9485002C
:100040000C9490020C9485000C94FE020C94D8023F
:100050000C9485000C9485000C9485000C9485000C
:100060000C9485000C94850000000008000201003B
:100070000003040700000000000000000000000072
:10008000250028002B0000000000240027002A0083
:10009000040404040404040402020202020203032E
:1000A0000303030301020408102040800102040836
:1000B0001020010204081020FC0311241FBECFEF02
:1000C000D8E0DEBFCDBF22E0A2E1B1E001C01D92C9
:1000D000A230B207E1F711E0A0E0B1E0ECEEF9E008
:1000E00002C005900D92A231B107D9F710E0CDE51D
:1000F000D0E004C02197FE010E94EE04CC35D10768
:10010000C9F70E9458040C94F4040C94000090E089
:10011000FC01EC55FF4F249180579F4FFC018491C7
:10012000882399F090E0880F991FFC01EA57FF4F50
:10013000A591B491FC01E458FF4F859194918FB73C
:10014000F894EC91E22BEC938FBF089590E0FC01C2
:10015000E859FF4F2491FC01EC55FF4F3491FC010D
:10016000E057FF4FE491EE23D9F0222349F02430E9
:1001700031F1B8F4223059F12330D9F0213019F19E
:10018000F0E0EE0FFF1FE458FF4FA591B4918FB739
:10019000F894EC91611124C030953E233C938FBFBD
:1001A00008952730B9F0283059F78091B0008F7D3D
:1001B00014C0809180008F7780938000E1CF809180
:1001C00080008F7DF9CF84B58F7784BDD9CF84B57A
:1001D0008F7DFBCF8091B0008F778093B000D0CF20
:1001E0003E2BDCCF789484B5826084BD84B5816079
:1001F00084BD85B5826085BD85B5816085BDEEE62F
:10020000F0E0808181608083E1E8F0E0108280810D
:1002100082608083808181608083E0E8F0E080817B
:1002200081608083E1EBF0E0808184608083E0EB9B
:10023000F0E0808181608083EAE7F0E08081846083
:1002400080838081826080838081816080838081DF
:10025000806880831092C1000895CF92DF92EF9260
:10026000FF920F931F93CF93DF937C016A0110E0FD
:1002700000E00C151D0581F0EB01D701ED91FC911B
:100280000190F081E02D6991C7010995892B21F03A
:100290000F5F1F4FBE01EDCFC801DF91CF911F91BE
:1002A0000F91FF90EF90DF90CF900895FC01538D58
:1002B000448D252F30E0842F90E0821B930B541740
:1002C00010F0CF96089501970895FC01918D828DCD
:1002D000981761F0A28DAE0FBF2FB11D5D968C9166
:1002E000928D9F5F9F73928F90E008958FEF9FEFA5
:1002F0000895FC01918D828D981731F0828DE80F61
:10030000F11D858D90E008958FEF9FEF0895FC011A
:10031000818D228D90E0805C9F4F821B91098F73AD
:100320009927089581E491E00E9487019C0181E072
:10033000232B09F480E0089580E090E0892B29F0D8
:100340000E94920181110C9400000895FC01A48D7B
:10035000A80FB92FB11DA35ABF4F2C91848D90E0E7
:1003600001968F739927848FA689B7892C93A089CA
:10037000B1898C91837080648C93938D848D981354
:1003800006C00288F389E02D80818F7D80830895E7
:10039000EF92FF920F931F93CF93DF93EC01F62E12
:1003A00081E0888F9B8D8C8D98131AC0E889F9891C
:1003B000808185FF15C09FB7F894EE89FF8960831F
:1003C000E889F98980818370806480839FBF81E0A0
:1003D00090E0DF91CF911F910F91FF90EF900895E2
:1003E0000B8D10E00F5F1F4F0F731127E02E8C8DC8
:1003F0008E110CC00FB607FCFACFE889F98980810D
:1004000085FFF5CFCE010E94A601F1CFEB8DEC0F59
:10041000FD2FF11DE35AFF4FF0829FB7F8940B8F29
:10042000EA89FB8980818062D0CFCF93DF93EC0192
:10043000888D8823B9F0AA89BB89E889F9898C91CC
:1004400085FD03C0808186FD0DC00FB607FCF7CF88
:100450008C9185FFF2CF808185FFEDCFCE010E9488
:10046000A601E9CFDF91CF9108951F93CF93DF933A
:10047000EC01162F88818C3008F04DC0862F0E9429
:1004800087004881842F90E0FC01EE0FFF1FE80FEA
:10049000F91FEC5EFE4F1F736081607C162B10838A
:1004A00019821A822CE0622F0E94E204829FC0010E
:1004B000112430E020E0BC01620F731FFB01EE0F3E
:1004C000FF1FE60FF71FEC5EFE4F508156FD16C072
:1004D0002F5F3F4F2C30310571F74C3078F410927C
:1004E000800082E080938100109285001092840049
:1004F000B19A80916F00826080936F00E8818E2FA7
:1005000090E0FC01EE0FFF1FE80FF91FEC5EFE4FBD
:100510008081806480838881DF91CF911F910895CD
:100520001F921FB61F9211242F933F938F939F9377
:10053000AF93BF9380913D0190913E01A0913F0107
:10054000B091400130913C0123E0230F2D3750F54D
:100550000196A11DB11D20933C0180933D01909314
:100560003E01A0933F01B0934001809138019091EA
:100570003901A0913A01B0913B010196A11DB11D35
:100580008093380190933901A0933A01B0933B01D5
:10059000BF91AF919F918F913F912F911F901FBE5F
:1005A0001F90189526E8230F0296A11DB11DD3CFE9
:1005B0001F920F920FB60F9211242F933F934F93D8
:1005C0005F936F937F938F939F93AF93BF93EF93BB
:1005D000FF9381E491E00E94A601FF91EF91BF910A
:1005E000AF919F918F917F916F915F914F913F91CB
:1005F0002F910F900FBE0F901F9018952F932FB72C
:100600002F938F939F93EF93FF93E0915101F0917C
:1006100052018081E0915701F091580182FD19C08B
:10062000908180915A018F5F8F7320915B018217B7
:1006300041F0E0915A01F0E0EF5BFE4F958F80931F
:100640005A01FF91EF919F918F912F912FBF2F9181
:1006500018958081F6CF1F920F920FB60F9211243A
:100660002F933F934F935F936F937F938F939F93BA
:10067000AF93BF93CF93DF93EF93FF9380911201DA
:10068000C0911301D0E087FF24C010928500109222
:100690008400809112018F5F80931201809112017A
:1006A000082E000C990B8C179D0724F480911201E1
:1006B0008C30B4F180918400909185000496803450
:1006C0009C4908F475C0809184009091850004963F
:1006D00071C080911201082E000C990B8C179D0798
:1006E000C4F680911201E82FEE0FFF0BE80FF11D09
:1006F00087FDFA95EC5EFE4F808186FFCACF809120
:100700001201E82FEE0FFF0BE80FF11D87FDFA95A0
:10071000EC5EFE4F808160E08F730E94A600B9CF2F
:10072000809184009091850020911201E22FEE0FBC
:10073000FF0BE20FF11D27FDFA95EC5EFE4F2181C4
:100740003281820F931F909389008093880080915B
:100750001201E82FEE0FFF0BE80FF11D87FDFA9550
:10076000EC5EFE4F808186FF10C080911201E82F61
:10077000EE0FFF0BE80FF11D87FDFA95EC5EFE4FC3
:10078000808161E08F730E94A600FF91EF91DF915D
:10079000CF91BF91AF919F918F917F916F915F9119
:1007A0004F913F912F910F900FBE0F901F90189572
:1007B00080E49CE990938900809388008FEF809378
:1007C0001201E3CFFC01809113018C3090F491E091
:1007D000980F90931301808390E0FC01EE0FFF1FB0
:1007E000E80FF91FEC5EFE4F88EB9BE0928381835C
:1007F00008958FEF80830895E1E4F1E0138212827F
:1008000088EE93E0A0E0B0E084839583A683B7836D
:1008100084E091E09183808385EC90E095878487E4
:1008200084EC90E09787868780EC90E0918B808BBA
:1008300081EC90E0938B828B82EC90E0958B848BA3
:1008400086EC90E0978B868B118E128E138E148E11
:100850008FEF91E00E94E2038CEF91E00E94E203AF
:1008600089EF91E00E94E20386EF91E00E94E203AB
:1008700083EF91E00E94E20380EF91E00E94E203A7
:100880008DEE91E00E94E2038AEE91E00E94E20385
:1008900087EE91E00E94E20384EE91E00E94E20381
:1008A00081EE91E00E94E2038EED91E00C94E20370
:1008B0000E94F200E0915101F091520182E08083A8
:1008C000E0914D01F0914E011082E0914F01F091C5
:1008D00050018FEC808310925901E0915501F09105
:1008E000560186E08083E0915301F09154018081AC
:1008F00080618083E0915301F09154018081886090
:100900008083E0915301F09154018081806880835D
:10091000E0915301F091540180818F7D80836EE0DE
:1009200070E08FEF91E00E9435026FE070E08CEF95
:1009300091E00E94350260E170E089EF91E00E9451
:10094000350261E170E086EF91E00E94350262E1DC
:1009500070E083EF91E00E94350270E060E080EF8C
:1009600091E00E94350261E070E08DEE91E00E941E
:10097000350262E070E08AEE91E00E94350263E0A9
:1009800070E087EE91E00E94350264E070E084EE52
:1009900091E00E94350265E070E081EE91E00E94F6
:1009A000350266E070E08EED91E00E943502C0E015
:1009B000D0E02097F1F30E9492018823D1F30E94A6
:1009C0000000F7CF991B79E004C0991F961708F033
:1009D000961B881F7A95C9F780950895EE0FFF1F23
:0C09E0000590F491E02D0994F894FFCFED
:1009EC0000000000C8012D015601150287016501A8
:0209FC0079017F
:00000001FF
